:100000000C945D000C9485000C9485000C94850084
:100010000C9485000C9485000C9485000C9485004C
:100020000C9485000C9485000C9485000C9485003C
:100030000C9485000C9485000C9485000C9485002C
:100040000C9494010C9485000C9404020C94DE0131
:100050000C9485000C9485000C9485000C9485000C
:100060000C9485000C9485000000000024002700FB
:100070002A0000000000250028002B0004040404CE
:100080000404040402020202020203030303030342
:10009000010204081020408001020408102001021F
:1000A00004081020000000080002010000030407FB
:1000B0000000000000000000790311241FBECFEFF4
:1000C000D8E0DEBFCDBF11E0A0E0B1E0E6E2FDE0A8
:1000D00002C005900D92A433B107D9F721E0A4E343
:1000E000B1E001C01D92AA3DB207E1F710E0CDE5F5
:1000F000D0E004C02197FE010E94A603CC35D107B1
:10010000C9F70E9436020C9491060C940000AF923D
:10011000BF92CF92DF92EF92FF920F931F93CF93F4
:10012000DF936C017B018B01040F151FEB015E0156
:10013000AE18BF08C017D10759F06991D601ED91EB
:10014000FC910190F081E02DC6010995892B79F78A
:10015000C501DF91CF911F910F91FF90EF90DF903C
:10016000CF90BF90AF900895FC01538D448D252F03
:1001700030E0842F90E0821B930B541710F0CF9641
:10018000089501970895FC01918D828D981761F073
:10019000A28DAE0FBF2FB11D5D968C91928D9F5F8A
:1001A0009F73928F90E008958FEF9FEF0895FC0169
:1001B000918D828D981731F0828DE80FF11D858D1C
:1001C00090E008958FEF9FEF0895FC01918D228DAF
:1001D000892F90E0805C9F4F821B91098F73992734
:1001E000089584E391E00E94E50021E0892B09F461
:1001F00020E0822F089580E090E0892B29F00E9472
:10020000F10081110C9400000895FC01A48DA80F49
:10021000B92FB11DA35ABF4F2C91848D90E0019648
:100220008F739927848FA689B7892C93A089B18968
:100230008C91837080648C93938D848D981306C009
:100240000288F389E02D80818F7D80830895EF926D
:10025000FF920F931F93CF93DF93EC0181E0888F80
:100260009B8D8C8D98131AC0E889F989808185FF50
:1002700015C09FB7F894EE89FF896083E889F989F2
:1002800080818370806480839FBF81E090E0DF91F4
:10029000CF911F910F91FF90EF900895F62E0B8D47
:1002A00010E00F5F1F4F0F731127E02E8C8D8E1102
:1002B0000CC00FB607FCFACFE889F989808185FF69
:1002C000F5CFCE010E940501F1CFEB8DEC0FFD2F94
:1002D000F11DE35AFF4FF0829FB7F8940B8FEA8924
:1002E000FB8980818062CFCFCF93DF93EC01888D33
:1002F0008823B9F0AA89BB89E889F9898C9185FDA1
:1003000003C0808186FD0DC00FB607FCF7CF8C912E
:1003100085FFF2CF808185FFEDCFCE010E940501E0
:10032000E9CFDF91CF9108951F920F920FB60F92F0
:1003300011242F933F938F939F93AF93BF938091FB
:10034000D6019091D701A091D801B091D9013091F7
:10035000D50123E0230F2D3758F50196A11DB11DBE
:100360002093D5018093D6019093D701A093D80113
:10037000B093D9018091D1019091D201A091D30184
:10038000B091D4010196A11DB11D8093D10190932C
:10039000D201A093D301B093D401BF91AF919F91AB
:1003A0008F913F912F910F900FBE0F901F90189536
:1003B00026E8230F0296A11DB11DD2CF1F920F92E6
:1003C0000FB60F9211242F933F934F935F936F9328
:1003D0007F938F939F93AF93BF93EF93FF9384E3A8
:1003E00091E00E940501FF91EF91BF91AF919F9124
:1003F0008F917F916F915F914F913F912F910F90CE
:100400000FBE0F901F9018951F920F920FB60F926C
:1004100011242F938F939F93EF93FF93E0914401C7
:10042000F09145018081E0914A01F0914B0182FDFC
:100430001BC0908180914D018F5F8F7320914E0181
:10044000821741F0E0914D01F0E0EC5CFE4F958F9A
:1004500080934D01FF91EF919F918F912F910F907C
:100460000FBE0F901F9018958081F4CFCF93DF932C
:10047000CDB7DEB7C456D1090FB6F894DEBF0FBEB4
:10048000CDBF789484B5826084BD84B5816084BD1D
:1004900085B5826085BD85B5816085BD80916E0022
:1004A000816080936E001092810080918100826053
:1004B0008093810080918100816080938100809190
:1004C00080008160809380008091B100846080937F
:1004D000B1008091B00081608093B00080917A007B
:1004E000846080937A0080917A00826080937A00A1
:1004F00080917A00816080937A0080917A00806890
:1005000080937A001092C100E0914401F09145017E
:1005100082E08083E0914001F09141011082E091FE
:100520004201F09143018FEC808310924C01E091E5
:100530004801F091490186E08083E0914601F09105
:100540004701808180618083E0914601F0914701FD
:10055000808188608083E0914601F091470180812D
:1005600080688083E0914601F091470180818F7D12
:1005700080837DE9672E70E0772EF3012491E9E80E
:10058000EE2EE0E0FE2EF7018491882399F090E0B2
:10059000880F991FFC01E859FF4FA591B491FC0108
:1005A000EE58FF4F859194918FB7F8949C91292B29
:1005B0002C938FBF8E010F5F1F4F92E2C92E91E0E7
:1005C000D92E24E6322E31EB432E30E0532E42E179
:1005D000A42E41E0B42E50E0852E50E0952E84E309
:1005E00091E00E94E500181619060CF04CC084E357
:1005F00091E00E94C300482F9C013327823008F00D
:1006000073C0F2018491F3019491F7015491552341
:10061000F1F0882359F0833009F44CC008F03FC052
:10062000813009F44DC0823009F44EC0E52FF0E06E
:10063000EE0FFF1FEE58FF4FA591B4918FB7F894BE
:1006400041114FC04C91909594239C938FBF3F9341
:100650002F93BF92AF921F923F921F930F930E94CE
:10066000AC030FB6F894DEBF0FBECDBFF80101900A
:100670000020E9F73197AF01401B510BB80184E32B
:1006800091E00E9487008114910409F4A8CF0E9490
:10069000F100882309F4A3CF0E940000A0CF873087
:1006A000B1F08830D1F0843009F0C0CF8091800063
:1006B0008F7D03C0809180008F7780938000B6CFBC
:1006C00084B58F7784BDB2CF84B58F7DFBCF809109
:1006D000B0008F778093B000A9CF8091B0008F7D5C
:1006E000F9CF4C91942BB1CF3F932F93DF92CF92C0
:1006F000B2CFE4E3F1E01382128288EE93E0A0E04F
:10070000B0E084839583A683B78384E091E09183EE
:10071000808385EC90E09587848784EC90E09787D0
:10072000868780EC90E0918B808B81EC90E0938BBE
:10073000828B82EC90E0958B848B86EC90E0978B9B
:10074000868B118E128E138E148E0895EE0FFF1F5E
:100750000590F491E02D0994AEE0B0E0E2EBF3E017
:100760000C9468060D891E898F89988D26E02C834C
:100770001A83098397FF02C080E090E801979E8367
:100780008D83AE01455E5F4F698D7A8DCE010196F6
:100790000E94DC034D815E8157FD0AC02F813885A0
:1007A000421753070CF49A01020F131FF80110822D
:1007B0002E96E4E00C948406ABE0B0E0E2EEF3E0C9
:1007C0000C945A067C013B018A01FC0117821682B7
:1007D000838181FFC8C1CE0101965C01F70193813D
:1007E000F30193FD859193FF81913F01882309F4E3
:1007F00053C1853239F493FD859193FF81913F0177
:10080000853229F4B70190E00E94CC05E7CF912C06
:10081000212C312CFFE1F31538F08B3211F190F4DB
:10082000803209F1833229F137FC3CC020ED280FDA
:100830002A3050F536FE20C08AE0989E200D112403
:10084000922E06C08D3291F0803371F7689430F8A3
:10085000F30193FD859193FF81913F018111DACFDF
:1008600021C0689431F8689432F8F2CF689433F874
:10087000EFCF689434F8ECCFEAE02E9E200D1124DF
:10088000222E689435F8E4CF8E3229F436FC04C168
:10089000689436F8DDCF8C3619F4689437F8D8CFE1
:1008A0008836B1F2982F9F7D95549330E0F08336CF
:1008B000A1F18337C1F1833509F063C02801F2E06B
:1008C0004F0E511CF801C080D180692D70E036FCBC
:1008D00002C06FEF7FEFC6010E94B6054C0168941D
:1008E00037F882010AC00C5F1F4FFFE3F9838824A9
:1008F0008394912C6501E89437F833FE2DC0522C77
:100900008114910471F5552009F468CFB70180E294
:1009100090E00E94CC055A94F6CFF801808189833B
:100920000E5F1F4FE4CF2801F2E04F0E511CF8017B
:10093000C080D180692D70E036FC02C06FEF7FEF80
:10094000C6010E94C1054C018201D5CFB70180E2EA
:1009500090E00E94CC052A942814190409F0B0F7FD
:10096000CECFF60137FC859137FE81916F01B7013B
:1009700090E00E94CC0551105A94F1E08F1A910832
:10098000BFCF843619F0893609F077C0F80137FEF9
:100990006BC060817181828193810C5F1F4FF32D49
:1009A000FF763F2E97FF09C09095809570956195D1
:1009B0007F4F8F4F9F4F689437F82AE030E0A501B2
:1009C0000E94FC05C82ECA188C2C432C36FE0CC085
:1009D000E89440F8C91440F434FE05C032FC03C06A
:1009E000F32DFE7E4F2E892C44FE95C0FE01EC0DAA
:1009F000F11D8081803309F087C0242D297E422E8D
:100A0000842D8870582E43FC95C040FE8FC09C2CCE
:100A1000821418F42C0C922C981844FE91C0B70143
:100A200080E390E00E94CC0542FE09C088E790E098
:100A300041FE02C088E590E0B7010E94CC05C914D0
:100A400008F48AC0CA94D12C9FEFC91AD90ACA0CDB
:100A5000DB1CF60182916F01B70190E00E94CC058A
:100A6000AC14BD04B1F74FCF60817181072E000C2B
:100A7000880B990B0E5F1F4F92CFD32CE894D4F8BC
:100A80002AE030E0853739F1232D297FD22E8F36A9
:100A900001F148F48835A9F0F701868197812B96FA
:100AA000E2E10C947606803749F08837A9F7D4FE46
:100AB00002C06894D2F820E130E00DC06894D4F808
:100AC000F6CF34FE03C0822F8660D82E20E132E0BC
:100AD00002C028E030E0F801D7FE0FC060817181CC
:100AE000828193810C5F1F4FA5010E94FC05C82ED7
:100AF000CA183D2CE89437F867CF6081718190E087
:100B000080E00E5F1F4FF0CF42FC02C0839478CF8D
:100B10008394839475CF842D867809F471CFF6CFB2
:100B2000B70180E290E00E94CC0583948214C0F368
:100B3000512C73CF522C5818821408F46ECFF8CF72
:100B4000842D867809F47BCF8BE241FE80E247FC5E
:100B50008DE2B70190E071CFB70180E390E00E9491
:100B6000CC059A946CCF8FEF9FEF99CFFC01059045
:100B7000615070400110D8F7809590958E0F9F1F9F
:100B80000895FC016150704001900110D8F78095E4
:100B900090958E0F9F1F08950F931F93CF93DF9310
:100BA000182F092FEB018B8181FD09C01FEF0FEF7B
:100BB000812F902FDF91CF911F910F91089582FF88
:100BC00014C02E813F818C819D81281739073CF408
:100BD000E881F981CF0101969983888310838E8102
:100BE0009F8101969F838E83E3CFE885F985812FCE
:100BF0000995892BA1F3DACFFA01AA27283051F100
:100C0000203181F1E8946F936E7F6E5F7F4F8F4F3D
:100C10009F4FAF4FB1E03ED0B4E03CD0670F781F9C
:100C2000891F9A1FA11D680F791F8A1F911DA11D81
:100C30006A0F711D811D911DA11D20D009F46894BA
:100C40003F912AE0269F11243019305D3193DEF662
:100C5000CF010895462F4770405D4193B3E00FD018
:100C6000C9F7F6CF462F4F70405D4A3318F0495D03
:100C700031FD4052419302D0A9F7EACFB4E0A695E6
:100C80009795879577956795BA95C9F70097610508
:100C9000710508959B01AC010A2E0694579547955E
:100CA00037952795BA95C9F7620F731F841F951F53
:100CB000A01D08952F923F924F925F926F927F9264
:100CC0008F929F92AF92BF92CF92DF92EF92FF925C
:100CD0000F931F93CF93DF93CDB7DEB7CA1BDB0B08
:100CE0000FB6F894DEBF0FBECDBF09942A883988AD
:100CF00048885F846E847D848C849B84AA84B984B4
:100D0000C884DF80EE80FD800C811B81AA81B981BF
:100D1000CE0FD11D0FB6F894DEBF0FBECDBFED01D3
:060D20000895F894FFCFD6
:100D26000000000027018700B4007401E500C3003D
:100D3600D70053657420737461746520746F202521
:100D46006400537461746520756E6B6E6F776E3ACE
:040D560020256400F0
:00000001FF
